{
  "contractName": "LipToken",
  "abi": [
    {
      "inputs": [
        {
          "internalType": "string",
          "name": "_name",
          "type": "string"
        },
        {
          "internalType": "string",
          "name": "_symbol",
          "type": "string"
        }
      ],
      "stateMutability": "nonpayable",
      "type": "constructor"
    },
    {
      "anonymous": false,
      "inputs": [
        {
          "indexed": true,
          "internalType": "address",
          "name": "owner",
          "type": "address"
        },
        {
          "indexed": true,
          "internalType": "address",
          "name": "approved",
          "type": "address"
        },
        {
          "indexed": true,
          "internalType": "uint256",
          "name": "tokenId",
          "type": "uint256"
        }
      ],
      "name": "Approval",
      "type": "event"
    },
    {
      "anonymous": false,
      "inputs": [
        {
          "indexed": true,
          "internalType": "address",
          "name": "owner",
          "type": "address"
        },
        {
          "indexed": true,
          "internalType": "address",
          "name": "operator",
          "type": "address"
        },
        {
          "indexed": false,
          "internalType": "bool",
          "name": "approved",
          "type": "bool"
        }
      ],
      "name": "ApprovalForAll",
      "type": "event"
    },
    {
      "anonymous": false,
      "inputs": [
        {
          "indexed": true,
          "internalType": "address",
          "name": "owner",
          "type": "address"
        },
        {
          "indexed": false,
          "internalType": "uint256",
          "name": "id",
          "type": "uint256"
        },
        {
          "indexed": false,
          "internalType": "uint256",
          "name": "dna",
          "type": "uint256"
        }
      ],
      "name": "NewLip",
      "type": "event"
    },
    {
      "anonymous": false,
      "inputs": [
        {
          "indexed": true,
          "internalType": "address",
          "name": "previousOwner",
          "type": "address"
        },
        {
          "indexed": true,
          "internalType": "address",
          "name": "newOwner",
          "type": "address"
        }
      ],
      "name": "OwnershipTransferred",
      "type": "event"
    },
    {
      "anonymous": false,
      "inputs": [
        {
          "indexed": true,
          "internalType": "address",
          "name": "from",
          "type": "address"
        },
        {
          "indexed": true,
          "internalType": "address",
          "name": "to",
          "type": "address"
        },
        {
          "indexed": true,
          "internalType": "uint256",
          "name": "tokenId",
          "type": "uint256"
        }
      ],
      "name": "Transfer",
      "type": "event"
    },
    {
      "inputs": [
        {
          "internalType": "address",
          "name": "to",
          "type": "address"
        },
        {
          "internalType": "uint256",
          "name": "tokenId",
          "type": "uint256"
        }
      ],
      "name": "approve",
      "outputs": [],
      "stateMutability": "nonpayable",
      "type": "function"
    },
    {
      "inputs": [
        {
          "internalType": "address",
          "name": "owner",
          "type": "address"
        }
      ],
      "name": "balanceOf",
      "outputs": [
        {
          "internalType": "uint256",
          "name": "",
          "type": "uint256"
        }
      ],
      "stateMutability": "view",
      "type": "function",
      "constant": true
    },
    {
      "inputs": [
        {
          "internalType": "uint256",
          "name": "tokenId",
          "type": "uint256"
        }
      ],
      "name": "getApproved",
      "outputs": [
        {
          "internalType": "address",
          "name": "",
          "type": "address"
        }
      ],
      "stateMutability": "view",
      "type": "function",
      "constant": true
    },
    {
      "inputs": [
        {
          "internalType": "address",
          "name": "owner",
          "type": "address"
        },
        {
          "internalType": "address",
          "name": "operator",
          "type": "address"
        }
      ],
      "name": "isApprovedForAll",
      "outputs": [
        {
          "internalType": "bool",
          "name": "",
          "type": "bool"
        }
      ],
      "stateMutability": "view",
      "type": "function",
      "constant": true
    },
    {
      "inputs": [
        {
          "internalType": "uint256",
          "name": "",
          "type": "uint256"
        }
      ],
      "name": "lips",
      "outputs": [
        {
          "internalType": "string",
          "name": "name",
          "type": "string"
        },
        {
          "internalType": "uint256",
          "name": "id",
          "type": "uint256"
        },
        {
          "internalType": "uint256",
          "name": "dna",
          "type": "uint256"
        },
        {
          "internalType": "uint8",
          "name": "level",
          "type": "uint8"
        },
        {
          "internalType": "uint8",
          "name": "rarity",
          "type": "uint8"
        }
      ],
      "stateMutability": "view",
      "type": "function",
      "constant": true
    },
    {
      "inputs": [],
      "name": "name",
      "outputs": [
        {
          "internalType": "string",
          "name": "",
          "type": "string"
        }
      ],
      "stateMutability": "view",
      "type": "function",
      "constant": true
    },
    {
      "inputs": [],
      "name": "owner",
      "outputs": [
        {
          "internalType": "address",
          "name": "",
          "type": "address"
        }
      ],
      "stateMutability": "view",
      "type": "function",
      "constant": true
    },
    {
      "inputs": [
        {
          "internalType": "uint256",
          "name": "tokenId",
          "type": "uint256"
        }
      ],
      "name": "ownerOf",
      "outputs": [
        {
          "internalType": "address",
          "name": "",
          "type": "address"
        }
      ],
      "stateMutability": "view",
      "type": "function",
      "constant": true
    },
    {
      "inputs": [],
      "name": "renounceOwnership",
      "outputs": [],
      "stateMutability": "nonpayable",
      "type": "function"
    },
    {
      "inputs": [
        {
          "internalType": "address",
          "name": "from",
          "type": "address"
        },
        {
          "internalType": "address",
          "name": "to",
          "type": "address"
        },
        {
          "internalType": "uint256",
          "name": "tokenId",
          "type": "uint256"
        }
      ],
      "name": "safeTransferFrom",
      "outputs": [],
      "stateMutability": "nonpayable",
      "type": "function"
    },
    {
      "inputs": [
        {
          "internalType": "address",
          "name": "from",
          "type": "address"
        },
        {
          "internalType": "address",
          "name": "to",
          "type": "address"
        },
        {
          "internalType": "uint256",
          "name": "tokenId",
          "type": "uint256"
        },
        {
          "internalType": "bytes",
          "name": "_data",
          "type": "bytes"
        }
      ],
      "name": "safeTransferFrom",
      "outputs": [],
      "stateMutability": "nonpayable",
      "type": "function"
    },
    {
      "inputs": [
        {
          "internalType": "address",
          "name": "operator",
          "type": "address"
        },
        {
          "internalType": "bool",
          "name": "approved",
          "type": "bool"
        }
      ],
      "name": "setApprovalForAll",
      "outputs": [],
      "stateMutability": "nonpayable",
      "type": "function"
    },
    {
      "inputs": [
        {
          "internalType": "bytes4",
          "name": "interfaceId",
          "type": "bytes4"
        }
      ],
      "name": "supportsInterface",
      "outputs": [
        {
          "internalType": "bool",
          "name": "",
          "type": "bool"
        }
      ],
      "stateMutability": "view",
      "type": "function",
      "constant": true
    },
    {
      "inputs": [],
      "name": "symbol",
      "outputs": [
        {
          "internalType": "string",
          "name": "",
          "type": "string"
        }
      ],
      "stateMutability": "view",
      "type": "function",
      "constant": true
    },
    {
      "inputs": [
        {
          "internalType": "uint256",
          "name": "tokenId",
          "type": "uint256"
        }
      ],
      "name": "tokenURI",
      "outputs": [
        {
          "internalType": "string",
          "name": "",
          "type": "string"
        }
      ],
      "stateMutability": "view",
      "type": "function",
      "constant": true
    },
    {
      "inputs": [
        {
          "internalType": "address",
          "name": "from",
          "type": "address"
        },
        {
          "internalType": "address",
          "name": "to",
          "type": "address"
        },
        {
          "internalType": "uint256",
          "name": "tokenId",
          "type": "uint256"
        }
      ],
      "name": "transferFrom",
      "outputs": [],
      "stateMutability": "nonpayable",
      "type": "function"
    },
    {
      "inputs": [
        {
          "internalType": "address",
          "name": "newOwner",
          "type": "address"
        }
      ],
      "name": "transferOwnership",
      "outputs": [],
      "stateMutability": "nonpayable",
      "type": "function"
    },
    {
      "inputs": [
        {
          "internalType": "uint256",
          "name": "_fee",
          "type": "uint256"
        }
      ],
      "name": "updateFee",
      "outputs": [],
      "stateMutability": "nonpayable",
      "type": "function"
    },
    {
      "inputs": [],
      "name": "withdraw",
      "outputs": [],
      "stateMutability": "payable",
      "type": "function",
      "payable": true
    },
    {
      "inputs": [
        {
          "internalType": "string",
          "name": "_name",
          "type": "string"
        }
      ],
      "name": "createRandomLip",
      "outputs": [],
      "stateMutability": "payable",
      "type": "function",
      "payable": true
    },
    {
      "inputs": [],
      "name": "getLips",
      "outputs": [
        {
          "components": [
            {
              "internalType": "string",
              "name": "name",
              "type": "string"
            },
            {
              "internalType": "uint256",
              "name": "id",
              "type": "uint256"
            },
            {
              "internalType": "uint256",
              "name": "dna",
              "type": "uint256"
            },
            {
              "internalType": "uint8",
              "name": "level",
              "type": "uint8"
            },
            {
              "internalType": "uint8",
              "name": "rarity",
              "type": "uint8"
            }
          ],
          "internalType": "struct LipToken.Lip[]",
          "name": "",
          "type": "tuple[]"
        }
      ],
      "stateMutability": "view",
      "type": "function",
      "constant": true
    },
    {
      "inputs": [
        {
          "internalType": "address",
          "name": "_owner",
          "type": "address"
        }
      ],
      "name": "getOwnerLips",
      "outputs": [
        {
          "components": [
            {
              "internalType": "string",
              "name": "name",
              "type": "string"
            },
            {
              "internalType": "uint256",
              "name": "id",
              "type": "uint256"
            },
            {
              "internalType": "uint256",
              "name": "dna",
              "type": "uint256"
            },
            {
              "internalType": "uint8",
              "name": "level",
              "type": "uint8"
            },
            {
              "internalType": "uint8",
              "name": "rarity",
              "type": "uint8"
            }
          ],
          "internalType": "struct LipToken.Lip[]",
          "name": "",
          "type": "tuple[]"
        }
      ],
      "stateMutability": "view",
      "type": "function",
      "constant": true
    },
    {
      "inputs": [
        {
          "internalType": "uint256",
          "name": "_lipId",
          "type": "uint256"
        }
      ],
      "name": "levelUp",
      "outputs": [],
      "stateMutability": "nonpayable",
      "type": "function"
    }
  ],
  "bytecode": "0x6080604052662386f26fc100006008553480156200001c57600080fd5b50604051620024dc380380620024dc8339810160408190526200003f916200023a565b81518290829062000058906000906020850190620000e9565b5080516200006e906001906020840190620000e9565b5050506200008b620000856200009360201b60201c565b62000097565b5050620002f4565b3390565b600680546001600160a01b038381166001600160a01b0319831681179093556040519116919082907f8be0079c531659141344cd1fd0a4f28419497f9722a3daafe3b4186f6b6457e090600090a35050565b828054620000f790620002a1565b90600052602060002090601f0160209004810192826200011b576000855562000166565b82601f106200013657805160ff191683800117855562000166565b8280016001018555821562000166579182015b828111156200016657825182559160200191906001019062000149565b506200017492915062000178565b5090565b5b8082111562000174576000815560010162000179565b600082601f830112620001a0578081fd5b81516001600160401b0380821115620001bd57620001bd620002de565b6040516020601f8401601f1916820181018381118382101715620001e557620001e5620002de565b6040528382528584018101871015620001fc578485fd5b8492505b838310156200021f578583018101518284018201529182019162000200565b838311156200023057848185840101525b5095945050505050565b600080604083850312156200024d578182fd5b82516001600160401b038082111562000264578384fd5b62000272868387016200018f565b9350602085015191508082111562000288578283fd5b5062000297858286016200018f565b9150509250929050565b600281046001821680620002b657607f821691505b60208210811415620002d857634e487b7160e01b600052602260045260246000fd5b50919050565b634e487b7160e01b600052604160045260246000fd5b6121d880620003046000396000f3fe6080604052600436106101405760003560e01c806370a08231116100b657806395d89b411161006f57806395d89b4114610371578063a22cb46514610386578063b88d4fde146103a6578063c87b56dd146103c6578063e985e9c5146103e6578063f2fde38b1461040657610140565b806370a08231146102b8578063715018a6146102e557806383b5daf7146102fa5780638c0b9c541461031c5780638da5cb5b1461033c5780639012c4a81461035157610140565b806323b872dd1161010857806323b872dd1461020c5780633ccfd60b1461022c57806342842e0e146102345780635ec163db146102545780636352211e14610285578063698d640c146102a557610140565b806301ffc9a71461014557806306fdde031461017b578063081812fc1461019d578063095ea7b3146101ca5780630ce90ec2146101ec575b600080fd5b34801561015157600080fd5b5061016561016036600461194f565b610426565b6040516101729190611b4c565b60405180910390f35b34801561018757600080fd5b5061019061046e565b6040516101729190611b57565b3480156101a957600080fd5b506101bd6101b83660046119cd565b610500565b6040516101729190611a60565b3480156101d657600080fd5b506101ea6101e5366004611926565b61054c565b005b3480156101f857600080fd5b506101ea6102073660046119cd565b6105e4565b34801561021857600080fd5b506101ea610227366004611838565b610669565b6101ea6106a1565b34801561024057600080fd5b506101ea61024f366004611838565b610726565b34801561026057600080fd5b5061027461026f3660046119cd565b610741565b604051610172959493929190611b6a565b34801561029157600080fd5b506101bd6102a03660046119cd565b610817565b6101ea6102b3366004611987565b61084c565b3480156102c457600080fd5b506102d86102d33660046117ec565b61087a565b604051610172919061203a565b3480156102f157600080fd5b506101ea6108be565b34801561030657600080fd5b5061030f610909565b6040516101729190611ab1565b34801561032857600080fd5b5061030f6103373660046117ec565b610a2f565b34801561034857600080fd5b506101bd610c21565b34801561035d57600080fd5b506101ea61036c3660046119cd565b610c30565b34801561037d57600080fd5b50610190610c74565b34801561039257600080fd5b506101ea6103a13660046118ec565b610c83565b3480156103b257600080fd5b506101ea6103c1366004611873565b610d51565b3480156103d257600080fd5b506101906103e13660046119cd565b610d90565b3480156103f257600080fd5b50610165610401366004611806565b610e13565b34801561041257600080fd5b506101ea6104213660046117ec565b610e41565b60006001600160e01b031982166380ac58cd60e01b148061045757506001600160e01b03198216635b5e139f60e01b145b80610466575061046682610eaf565b90505b919050565b60606000805461047d906120c0565b80601f01602080910402602001604051908101604052809291908181526020018280546104a9906120c0565b80156104f65780601f106104cb576101008083540402835291602001916104f6565b820191906000526020600020905b8154815290600101906020018083116104d957829003601f168201915b5050505050905090565b600061050b82610ec8565b6105305760405162461bcd60e51b815260040161052790611e8f565b60405180910390fd5b506000908152600460205260409020546001600160a01b031690565b600061055782610817565b9050806001600160a01b0316836001600160a01b0316141561058b5760405162461bcd60e51b815260040161052790611fa8565b806001600160a01b031661059d610ee5565b6001600160a01b031614806105b957506105b981610401610ee5565b6105d55760405162461bcd60e51b815260040161052790611d6a565b6105df8383610ee9565b505050565b336105ee82610817565b6001600160a01b03161461060157600080fd5b60006009828154811061062457634e487b7160e01b600052603260045260246000fd5b6000918252602082206003600490920201908101805491935060ff9091169161064c83612116565b91906101000a81548160ff021916908360ff160217905550505050565b61067a610674610ee5565b82610f57565b6106965760405162461bcd60e51b815260040161052790611fe9565b6105df838383610fdc565b6106a9610ee5565b6001600160a01b03166106ba610c21565b6001600160a01b0316146106e05760405162461bcd60e51b815260040161052790611edb565b60006106ea610c21565b6040519091506001600160a01b038216904780156108fc02916000818181858888f19350505050158015610722573d6000803e3d6000fd5b5050565b6105df83838360405180602001604052806000815250610d51565b6009818154811061075157600080fd5b9060005260206000209060040201600091509050806000018054610774906120c0565b80601f01602080910402602001604051908101604052809291908181526020018280546107a0906120c0565b80156107ed5780601f106107c2576101008083540402835291602001916107ed565b820191906000526020600020905b8154815290600101906020018083116107d057829003601f168201915b50505050600183015460028401546003909401549293909290915060ff8082169161010090041685565b6000818152600260205260408120546001600160a01b0316806104665760405162461bcd60e51b815260040161052790611e11565b60085434101561086e5760405162461bcd60e51b815260040161052790611cee565b61087781611109565b50565b60006001600160a01b0382166108a25760405162461bcd60e51b815260040161052790611dc7565b506001600160a01b031660009081526003602052604090205490565b6108c6610ee5565b6001600160a01b03166108d7610c21565b6001600160a01b0316146108fd5760405162461bcd60e51b815260040161052790611edb565b610907600061125e565b565b60606009805480602002602001604051908101604052809291908181526020016000905b82821015610a2657838290600052602060002090600402016040518060a0016040529081600082018054610960906120c0565b80601f016020809104026020016040519081016040528092919081815260200182805461098c906120c0565b80156109d95780601f106109ae576101008083540402835291602001916109d9565b820191906000526020600020905b8154815290600101906020018083116109bc57829003601f168201915b50505091835250506001828101546020808401919091526002840154604084015260039093015460ff8082166060850152610100909104166080909201919091529183529201910161092d565b50505050905090565b60606000610a3c8361087a565b67ffffffffffffffff811115610a6257634e487b7160e01b600052604160045260246000fd5b604051908082528060200260200182016040528015610a9b57816020015b610a88611697565b815260200190600190039081610a805790505b5090506000805b600954811015610c1857846001600160a01b0316610abf82610817565b6001600160a01b03161415610c065760098181548110610aef57634e487b7160e01b600052603260045260246000fd5b90600052602060002090600402016040518060a0016040529081600082018054610b18906120c0565b80601f0160208091040260200160405190810160405280929190818152602001828054610b44906120c0565b8015610b915780601f10610b6657610100808354040283529160200191610b91565b820191906000526020600020905b815481529060010190602001808311610b7457829003601f168201915b5050509183525050600182015460208201526002820154604082015260039091015460ff8082166060840152610100909104166080909101528351849084908110610bec57634e487b7160e01b600052603260045260246000fd5b60200260200101819052508180610c02906120fb565b9250505b80610c10816120fb565b915050610aa2565b50909392505050565b6006546001600160a01b031690565b610c38610ee5565b6001600160a01b0316610c49610c21565b6001600160a01b031614610c6f5760405162461bcd60e51b815260040161052790611edb565b600855565b60606001805461047d906120c0565b610c8b610ee5565b6001600160a01b0316826001600160a01b03161415610cbc5760405162461bcd60e51b815260040161052790611cb7565b8060056000610cc9610ee5565b6001600160a01b03908116825260208083019390935260409182016000908120918716808252919093529120805460ff191692151592909217909155610d0d610ee5565b6001600160a01b03167f17307eab39ab6107e8899845ad3d59bd9653f200f220920489ca2b5937696c3183604051610d459190611b4c565b60405180910390a35050565b610d62610d5c610ee5565b83610f57565b610d7e5760405162461bcd60e51b815260040161052790611fe9565b610d8a848484846112b0565b50505050565b6060610d9b82610ec8565b610db75760405162461bcd60e51b815260040161052790611f59565b6000610dc16112e3565b90506000815111610de15760405180602001604052806000815250610e0c565b80610deb846112f5565b604051602001610dfc929190611a11565b6040516020818303038152906040525b9392505050565b6001600160a01b03918216600090815260056020908152604080832093909416825291909152205460ff1690565b610e49610ee5565b6001600160a01b0316610e5a610c21565b6001600160a01b031614610e805760405162461bcd60e51b815260040161052790611edb565b6001600160a01b038116610ea65760405162461bcd60e51b815260040161052790611bf6565b6108778161125e565b6001600160e01b031981166301ffc9a760e01b14919050565b6000908152600260205260409020546001600160a01b0316151590565b3390565b600081815260046020526040902080546001600160a01b0319166001600160a01b0384169081179091558190610f1e82610817565b6001600160a01b03167f8c5be1e5ebec7d5bd14f71427d1e84f3dd0314c0f7b2291e5b200ac8c7c3b92560405160405180910390a45050565b6000610f6282610ec8565b610f7e5760405162461bcd60e51b815260040161052790611d1e565b6000610f8983610817565b9050806001600160a01b0316846001600160a01b03161480610fc45750836001600160a01b0316610fb984610500565b6001600160a01b0316145b80610fd45750610fd48185610e13565b949350505050565b826001600160a01b0316610fef82610817565b6001600160a01b0316146110155760405162461bcd60e51b815260040161052790611f10565b6001600160a01b03821661103b5760405162461bcd60e51b815260040161052790611c73565b6110468383836105df565b611051600082610ee9565b6001600160a01b038316600090815260036020526040812080546001929061107a90849061207d565b90915550506001600160a01b03821660009081526003602052604081208054600192906110a8908490612051565b909155505060008181526002602052604080822080546001600160a01b0319166001600160a01b0386811691821790925591518493918716917fddf252ad1be2c89b69c2b068fc378daa952ba7f163c4a11628f55a4df523b3ef91a4505050565b60006111156064611410565b90506000611129662386f26fc10000611410565b6040805160a08101825285815260075460208083019190915291810183905260016060820181905260ff86166080830152600980549182018155600052815180519495509193849360049092027f6e1540171b6c0c960b71a7020d9f60077f6af931a8bbf590da0223dacf75c7af01926111a79284929101906116cc565b50602082015160018201556040820151600282015560608201516003909101805460809093015160ff9081166101000261ff00199190931660ff1990941693909317929092161790556007546111fe90339061144a565b336001600160a01b03167f24d2d558f98bdd9d21339e119fc0b03e213c7d05affd838ac2ee136d90e3bbeb6007548460405161123b929190612043565b60405180910390a260078054906000611253836120fb565b919050555050505050565b600680546001600160a01b038381166001600160a01b0319831681179093556040519116919082907f8be0079c531659141344cd1fd0a4f28419497f9722a3daafe3b4186f6b6457e090600090a35050565b6112bb848484610fdc565b6112c784848484611464565b610d8a5760405162461bcd60e51b815260040161052790611ba4565b60408051602081019091526000815290565b60608161131a57506040805180820190915260018152600360fc1b6020820152610469565b8160005b8115611344578061132e816120fb565b915061133d9050600a83612069565b915061131e565b60008167ffffffffffffffff81111561136d57634e487b7160e01b600052604160045260246000fd5b6040519080825280601f01601f191660200182016040528015611397576020820181803683370190505b5090505b8415610fd4576113ac60018361207d565b91506113b9600a86612136565b6113c4906030612051565b60f81b8183815181106113e757634e487b7160e01b600052603260045260246000fd5b60200101906001600160f81b031916908160001a905350611409600a86612069565b945061139b565b6000804233604051602001611426929190611a40565b60408051601f1981840301815291905280516020909101209050610e0c8382612136565b61072282826040518060200160405280600081525061157f565b6000611478846001600160a01b03166115b2565b1561157457836001600160a01b031663150b7a02611494610ee5565b8786866040518563ffffffff1660e01b81526004016114b69493929190611a74565b602060405180830381600087803b1580156114d057600080fd5b505af1925050508015611500575060408051601f3d908101601f191682019092526114fd9181019061196b565b60015b61155a573d80801561152e576040519150601f19603f3d011682016040523d82523d6000602084013e611533565b606091505b5080516115525760405162461bcd60e51b815260040161052790611ba4565b805181602001fd5b6001600160e01b031916630a85bd0160e11b149050610fd4565b506001949350505050565b61158983836115b8565b6115966000848484611464565b6105df5760405162461bcd60e51b815260040161052790611ba4565b3b151590565b6001600160a01b0382166115de5760405162461bcd60e51b815260040161052790611e5a565b6115e781610ec8565b156116045760405162461bcd60e51b815260040161052790611c3c565b611610600083836105df565b6001600160a01b0382166000908152600360205260408120805460019290611639908490612051565b909155505060008181526002602052604080822080546001600160a01b0319166001600160a01b03861690811790915590518392907fddf252ad1be2c89b69c2b068fc378daa952ba7f163c4a11628f55a4df523b3ef908290a45050565b6040518060a00160405280606081526020016000815260200160008152602001600060ff168152602001600060ff1681525090565b8280546116d8906120c0565b90600052602060002090601f0160209004810192826116fa5760008555611740565b82601f1061171357805160ff1916838001178555611740565b82800160010185558215611740579182015b82811115611740578251825591602001919060010190611725565b5061174c929150611750565b5090565b5b8082111561174c5760008155600101611751565b600067ffffffffffffffff8084111561178057611780612176565b604051601f8501601f1916810160200182811182821017156117a4576117a4612176565b6040528481529150818385018610156117bc57600080fd5b8484602083013760006020868301015250509392505050565b80356001600160a01b038116811461046957600080fd5b6000602082840312156117fd578081fd5b610e0c826117d5565b60008060408385031215611818578081fd5b611821836117d5565b915061182f602084016117d5565b90509250929050565b60008060006060848603121561184c578081fd5b611855846117d5565b9250611863602085016117d5565b9150604084013590509250925092565b60008060008060808587031215611888578081fd5b611891856117d5565b935061189f602086016117d5565b925060408501359150606085013567ffffffffffffffff8111156118c1578182fd5b8501601f810187136118d1578182fd5b6118e087823560208401611765565b91505092959194509250565b600080604083850312156118fe578182fd5b611907836117d5565b91506020830135801515811461191b578182fd5b809150509250929050565b60008060408385031215611938578182fd5b611941836117d5565b946020939093013593505050565b600060208284031215611960578081fd5b8135610e0c8161218c565b60006020828403121561197c578081fd5b8151610e0c8161218c565b600060208284031215611998578081fd5b813567ffffffffffffffff8111156119ae578182fd5b8201601f810184136119be578182fd5b610fd484823560208401611765565b6000602082840312156119de578081fd5b5035919050565b600081518084526119fd816020860160208601612094565b601f01601f19169290920160200192915050565b60008351611a23818460208801612094565b835190830190611a37818360208801612094565b01949350505050565b91825260601b6bffffffffffffffffffffffff1916602082015260340190565b6001600160a01b0391909116815260200190565b6001600160a01b0385811682528416602082015260408101839052608060608201819052600090611aa7908301846119e5565b9695505050505050565b60208082528251828201819052600091906040908185019080840286018301878501865b83811015611b3e57603f19898403018552815160a08151818652611afb828701826119e5565b838b0151878c0152898401518a88015260608085015160ff9081169189019190915260809485015116939096019290925250509386019390860190600101611ad5565b509098975050505050505050565b901515815260200190565b600060208252610e0c60208301846119e5565b600060a08252611b7d60a08301886119e5565b602083019690965250604081019390935260ff918216606084015216608090910152919050565b60208082526032908201527f4552433732313a207472616e7366657220746f206e6f6e20455243373231526560408201527131b2b4bb32b91034b6b83632b6b2b73a32b960711b606082015260800190565b60208082526026908201527f4f776e61626c653a206e6577206f776e657220697320746865207a65726f206160408201526564647265737360d01b606082015260800190565b6020808252601c908201527f4552433732313a20746f6b656e20616c7265616479206d696e74656400000000604082015260600190565b60208082526024908201527f4552433732313a207472616e7366657220746f20746865207a65726f206164646040820152637265737360e01b606082015260800190565b60208082526019908201527f4552433732313a20617070726f766520746f2063616c6c657200000000000000604082015260600190565b602080825260169082015275151a1948199959481a5cc81b9bdd0818dbdc9c9958dd60521b604082015260600190565b6020808252602c908201527f4552433732313a206f70657261746f7220717565727920666f72206e6f6e657860408201526b34b9ba32b73a103a37b5b2b760a11b606082015260800190565b60208082526038908201527f4552433732313a20617070726f76652063616c6c6572206973206e6f74206f7760408201527f6e6572206e6f7220617070726f76656420666f7220616c6c0000000000000000606082015260800190565b6020808252602a908201527f4552433732313a2062616c616e636520717565727920666f7220746865207a65604082015269726f206164647265737360b01b606082015260800190565b60208082526029908201527f4552433732313a206f776e657220717565727920666f72206e6f6e657869737460408201526832b73a103a37b5b2b760b91b606082015260800190565b6020808252818101527f4552433732313a206d696e7420746f20746865207a65726f2061646472657373604082015260600190565b6020808252602c908201527f4552433732313a20617070726f76656420717565727920666f72206e6f6e657860408201526b34b9ba32b73a103a37b5b2b760a11b606082015260800190565b6020808252818101527f4f776e61626c653a2063616c6c6572206973206e6f7420746865206f776e6572604082015260600190565b60208082526029908201527f4552433732313a207472616e73666572206f6620746f6b656e2074686174206960408201526839903737ba1037bbb760b91b606082015260800190565b6020808252602f908201527f4552433732314d657461646174613a2055524920717565727920666f72206e6f60408201526e3732bc34b9ba32b73a103a37b5b2b760891b606082015260800190565b60208082526021908201527f4552433732313a20617070726f76616c20746f2063757272656e74206f776e656040820152603960f91b606082015260800190565b60208082526031908201527f4552433732313a207472616e736665722063616c6c6572206973206e6f74206f6040820152701ddb995c881b9bdc88185c1c1c9bdd9959607a1b606082015260800190565b90815260200190565b918252602082015260400190565b600082198211156120645761206461214a565b500190565b60008261207857612078612160565b500490565b60008282101561208f5761208f61214a565b500390565b60005b838110156120af578181015183820152602001612097565b83811115610d8a5750506000910152565b6002810460018216806120d457607f821691505b602082108114156120f557634e487b7160e01b600052602260045260246000fd5b50919050565b600060001982141561210f5761210f61214a565b5060010190565b600060ff821660ff81141561212d5761212d61214a565b60010192915050565b60008261214557612145612160565b500690565b634e487b7160e01b600052601160045260246000fd5b634e487b7160e01b600052601260045260246000fd5b634e487b7160e01b600052604160045260246000fd5b6001600160e01b03198116811461087757600080fdfea26469706673582212209ba87264e08f29d2d6be0bc377867dc5e9a9a5e99cab4bcf5a464c5ac14284b064736f6c63430008000033",
  "immutableReferences": {},
  "source": "// SPDX-License-Identifier: MIT\r\n\r\npragma solidity ^0.8.0;\r\n\r\n// importing open-zeppelin's ERC-721\r\n// importing ownable contract\r\nimport \"@openzeppelin/contracts/token/ERC721/ERC721.sol\";\r\nimport \"@openzeppelin/contracts/access/Ownable.sol\";\r\n\r\ncontract LipToken is ERC721, Ownable {\r\n    \r\n    constructor(string memory _name, string memory _symbol)\r\n        ERC721(_name, _symbol)\r\n    {}\r\n    \r\n    uint256 COUNTER;\r\n    \r\n    uint256 fee = 0.01 ether;\r\n    \r\n    // defining a lip object\r\n    struct Lip {\r\n        string name;\r\n        uint256 id;\r\n        uint256 dna;\r\n        uint8 level;\r\n        uint8 rarity;\r\n    }\r\n    \r\n    Lip[] public lips;\r\n    \r\n    event NewLip(address indexed owner, uint256 id, uint256 dna);\r\n    \r\n    // helper functions\r\n    function _createRandomNum(uint256 _mod) internal view returns(uint256) {\r\n        uint256 randomNum = uint256(keccak256(abi.encodePacked(block.timestamp, msg.sender)));\r\n        return randomNum % _mod;\r\n    }\r\n    \r\n    function updateFee(uint256 _fee) external onlyOwner() {\r\n        fee = _fee;\r\n    }\r\n    \r\n    function withdraw() external payable onlyOwner() {\r\n        address payable _owner = payable(owner());\r\n        _owner.transfer(address(this).balance);\r\n    }\r\n    \r\n    // creation and minting function\r\n    function _createLip(string memory _name) internal {\r\n        uint8 randRarity = uint8(_createRandomNum(100));\r\n        uint256 randDna = _createRandomNum(10**16);\r\n        Lip memory newLip = Lip(_name, COUNTER, randDna, 1, randRarity);\r\n        lips.push(newLip);\r\n        _safeMint(msg.sender, COUNTER);\r\n        emit NewLip(msg.sender, COUNTER, randDna);\r\n        COUNTER++;\r\n    }\r\n    \r\n    function createRandomLip(string memory _name) public payable {\r\n        require(msg.value >= fee, \"The fee is not correct\");\r\n        _createLip(_name);\r\n    }\r\n    \r\n    // getters\r\n    function getLips() public view returns(Lip[] memory) {\r\n        return lips;\r\n    }\r\n\r\n    function getOwnerLips(address _owner) public view returns(Lip[] memory) {\r\n        Lip[] memory result = new Lip[](balanceOf(_owner));\r\n        uint256 counter = 0;\r\n        for(uint256 i = 0; i < lips.length; i++) {\r\n            if(ownerOf(i) == _owner) {\r\n                result[counter] = lips[i];\r\n                counter++;\r\n            }\r\n        }\r\n        return result;\r\n    }\r\n\r\n    // actions\r\n    function levelUp(uint256 _lipId) public {\r\n        require(ownerOf(_lipId) == msg.sender);\r\n        Lip storage lip = lips[_lipId];\r\n        lip.level++;\r\n    }\r\n}",
  "sourcePath": "C:/Users/aless/Documents/ethdev/nft/nft_collectible_game/nft_game/contracts/LipToken.sol",
  "compiler": {
    "name": "solc",
    "version": "0.8.0+commit.c7dfd78e.Emscripten.clang"
  },
  "schemaVersion": "3.4.1",
  "updatedAt": "2021-08-18T07:01:46.546Z",
  "networkType": "ethereum",
  "devdoc": {
    "kind": "dev",
    "methods": {
      "approve(address,uint256)": {
        "details": "See {IERC721-approve}."
      },
      "balanceOf(address)": {
        "details": "See {IERC721-balanceOf}."
      },
      "getApproved(uint256)": {
        "details": "See {IERC721-getApproved}."
      },
      "isApprovedForAll(address,address)": {
        "details": "See {IERC721-isApprovedForAll}."
      },
      "name()": {
        "details": "See {IERC721Metadata-name}."
      },
      "owner()": {
        "details": "Returns the address of the current owner."
      },
      "ownerOf(uint256)": {
        "details": "See {IERC721-ownerOf}."
      },
      "renounceOwnership()": {
        "details": "Leaves the contract without owner. It will not be possible to call `onlyOwner` functions anymore. Can only be called by the current owner. NOTE: Renouncing ownership will leave the contract without an owner, thereby removing any functionality that is only available to the owner."
      },
      "safeTransferFrom(address,address,uint256)": {
        "details": "See {IERC721-safeTransferFrom}."
      },
      "safeTransferFrom(address,address,uint256,bytes)": {
        "details": "See {IERC721-safeTransferFrom}."
      },
      "setApprovalForAll(address,bool)": {
        "details": "See {IERC721-setApprovalForAll}."
      },
      "supportsInterface(bytes4)": {
        "details": "See {IERC165-supportsInterface}."
      },
      "symbol()": {
        "details": "See {IERC721Metadata-symbol}."
      },
      "tokenURI(uint256)": {
        "details": "See {IERC721Metadata-tokenURI}."
      },
      "transferFrom(address,address,uint256)": {
        "details": "See {IERC721-transferFrom}."
      },
      "transferOwnership(address)": {
        "details": "Transfers ownership of the contract to a new account (`newOwner`). Can only be called by the current owner."
      }
    },
    "version": 1
  },
  "userdoc": {
    "kind": "user",
    "methods": {},
    "version": 1
  }
}